:1000000008308A0000280000FF00030E8301A100D1
:100010000A08A0008A010408A2007708A300780853
:10002000A4007908A5007A08A600831383128B1D0B
:100030001B280B182C28220884002308F70024080A
:10004000F8002508F9002608FA0020088A00210E89
:100050008300FF0E7F0E09008A110A124B280A1036
:100060008A100A11820728340C34013406344930CE
:1000700084008313000803194A280630F800F701AA
:10008000F70B4028F80B3F287B30F700F70B46288A
:10009000800B3D280800FF30831686008312060877
:1000A000F039703A03195E28C03A03196128603AA2
:1000B00003196428303A031967286A280130A80018
:1000C0006A280230A8006A280330A8006A28043091
:1000D000A8006A281430C90037200B108A110A12B0
:1000E0001B282A10D4326D386539613A7539611090
:1000F000201000002010D6376C3AE936653AF23706
:100100002010201000012010D4326D386539613A7A
:1001100075396110201000012A10D6376C3AE93683
:10012000653AF2372010201000012010D6376C3AC3
:10013000E936653AF2372010201020002A10C13627
:10014000F032F234ED3274396F10201000002010BC
:10015000D4326D386539613A7539611D201000005F
:1001600020102519AE186610C332EC39E93A731025
:10017000200020102010D6376C3A6135651D201004
:100180002010000120102519AE186610F6376C3AC1
:100190007310201000012010A0216F39F234653750
:1001A000F4323A1020102000A519AE186610ED3474
:1001B000EC34E136F032F232731020002026613147
:1001C0006F39613A6F39E937203265100001CD345B
:1001D0006339EF31EF36F03AF430E437F2300001B2
:1001E0004418F4288812F52888168316881283127A
:1001F000C418FC280812FD2808168316081283125A
:100200004419042988110529881583168811831239
:10021000C4190C2908110D290815831608110000AE
:1002200083120817831608130330F700F70B1629FB
:100230008312081383160813831208008813831689
:100240008813881608168815081583120814831653
:100250000810000083120817831608130000831289
:10026000C5018316881600308312881A0130C50430
:100270008316081600308312081A0130F7000310A5
:10028000F70D7708C5048316881500308312881986
:100290000130F700F70DF70DFC30F7057708C504BE
:1002A000831608150030831208190130F700F70D86
:1002B000F70DF70DF830F7057708C5044508F80085
:1002C0007808C40008138316081300008312081767
:1002D000831608136B296C2900008312C50183164D
:1002E000881600308312881A0130C5048316081658
:1002F00000308312081A0130F7000310F70D770859
:10030000C504831688150030831288190130F70060
:10031000F70DF70DFC30F7057708C50483160815AF
:100320000030831208190130F700F70DF70DF70DB3
:10033000F830F7057708C5044508F8007808C300C9
:1003400008138316081388120812881108118312E3
:10035000440EF700F030F70577084304F8007808FA
:10036000C300C31FB52983162129C108031DBA295B
:100370008813BB298817831688130000831208107E
:1003800083160810000083120813831608138312C3
:10039000420EC3000F30C3054308C400F0204208DA
:1003A0000F39C300C400F020080083168812081219
:1003B00088110811081388130810831288138316F4
:1003C00088138312081083160810831208138316EB
:1003D00008138312A7018B1BA7178B130F30C900BB
:1003E0003720A71B8B170130AB002B08033C031CE5
:1003F000072A0330C400F020A7018B1BA7178B131B
:100400000530C9003720A71B8B17AB0AF52902302E
:10041000C400F020AB012B08033C031C182A2B0856
:100420002F20AC00C1012C08C2001E21AB0A0B2AF0
:100430008A150A121A283E0B1E2A212A4030BF00B4
:10044000222ABF0101303D02BF073F088038C000AB
:10045000C1014008C2001E2108003C080C3A0319E3
:10046000382A063A0319462A023A03194C2A512A15
:10047000C1010130C2001E21A7018B1BA7178B13DE
:100480000230C9003720A71B8B17572A0130BD0047
:100490000230BE001B22572AC1011030C2001E21AB
:1004A000572A0130C1003C08C2001E21572A08000B
:1004B000831603178C170C140000000083120C081D
:1004C0007F3903199C2A0313AF0003170D08031388
:1004D000B00003170F080313B1002F08BC002D2232
:1004E000300803178D000313310803178F0083169C
:1004F0008C170C140000000083120C0D0E0D7F39B8
:1005000003199C2A0313AF0003170D080313B0004F
:1005100003170F080313B1002F08BC002D22300869
:1005200003178D000313310803178F008D0A031979
:100530008F0A0313582A031703130800A8012A0B74
:10054000B82A0C30BC002D22713003178D0000300A
:100550008F00031358220130BD000230BE001B2261
:100560007A3003178D0000308F0003135822ED2AD4
:100570002A08023C031DD32A0C30BC002D228330F4
:1005800003178D0000308F00031358220130BD0087
:100590000230BE001B228C3003178D0000308F000C
:1005A00003135822ED2A2A08033C031DED2A0C30C0
:1005B000BC002D22953003178D0000308F000313EF
:1005C00058220130BD000230BE001B229E300317AE
:1005D0008D0000308F0003135822A8080319ED2A5C
:1005E0002808013A0319FB2A033A0319002B013AA0
:1005F0000319082B0B2BAA0BFF2A0130AA000B2B87
:10060000AA0A2A08033C0318072B0330AA000B2B65
:100610002A08A9000B2B8A150A1281283C08031905
:100620007E2BC400400803197E2BC40703181F2B20
:100630007F30C402031C7E2B03197E2B232B8130B9
:10064000C40703187E2B4408F700F801F901FA01EA
:100650003D08C800C8173E08C7003F08C60018304C
:10066000C400C501461C4C2B4308FA07031C3E2B53
:10067000F90A031D3E2BF80A0319C5174208F907AA
:10068000031C452BF80A0319C5174108BE00BE1705
:100690003E08F8070318C517C50DF80CF90CFA0C3D
:1006A000C80CC70CC60C0310C40B312B0130F70764
:1006B00003187E2BF81B632BC80DFA0DF90DF80DEE
:1006C000F70303197E2BC81F742BFA0A031D742B22
:1006D000F90A031D742BF80A031D742BF80CF90C8E
:1006E000FA0CF70A03197E2B3D08C5004108C50620
:1006F000C51F7C2BF817822BF813822BF701F8010A
:10070000F901FA0108000408B4003308B60003191F
:10071000A22B3208BF003108BE003008BD002F08F0
:10072000BC00C301C2012030C1008230C0000E23D2
:100730007A08B2007908B1007808B0007708AF00F5
:10074000B60B892B3208BF003108BE003008BD004F
:100750002F08BC003C08B63CBC00FA013D08C000B4
:10076000BD170310BD0CBE0CBF0CFA0CF90CF80C35
:10077000F70CBC0BB12BC01FC82BF709F809F909FE
:10078000FA09F70A0319F80A0319F90A0319FA0A08
:100790007A08B2007908B1007808B0007708AF0095
:1007A000B21FDF2BB403B416AF09B009B109B20907
:1007B000AF0A0319B00A0319B10A0319B20A3B3090
:1007C000BB009A30BA00CA30B900B8010A30B6008E
:1007D00033080319B40A3208BF003108BE003008DC
:1007E000BD002F08BC003B08C3003A08C20039080E
:1007F000C1003808C000F701F801F901FA01C4018D
:10080000C501C601C701430842044104400403195D
:10081000392C2030C8000310BC0DBD0DBE0DBF0D1E
:10082000C40DC50DC60DC70D43084702031D222C7C
:1008300042084602031D222C41084502031D222CBA
:1008400040084402031C332C4008C4024108031C26
:10085000410FC5024208031C420FC6024308031C95
:10086000430FC7020314F70DF80DF90DFA0DC80B6D
:100870000B2C44308400831378080008AF00840AEE
:100880000008B000840A0008B100840A0008B20021
:10089000FD308407F708031D602C330A3602031964
:1008A000602C34080319622C0F39360203195A2CB4
:1008B0000318922CB41B922C341B622C20308E2CEB
:1008C0002030B405B41E702CB4123308031DB403D9
:1008D0007708B4002D30BC002D223408F700B40195
:1008E00033083602031D7E2C7708B4002E30BC007E
:1008F0002D223408F7002030B40500303030B41E0B
:100900008E2CB4123308031DB4037708B4002D30C5
:10091000BC002D223408F700B4013030F707770807
:10092000BC002D223B08BF003A08BE003908BD00BC
:100930003808BC00C301C201C1010A30C000F70180
:10094000F801F901FA01C401C501C601C701430854
:100950004204410440040319DD2C2030C800031078
:10096000BC0DBD0DBE0DBF0DC40DC50DC60DC70D13
:1009700043084702031DC62C42084602031DC62C2D
:1009800041084502031DC62C40084402031CD72C15
:100990004008C4024108031C410FC5024208031C61
:1009A000420FC6024308031C430FC7020314F70D8E
:1009B000F80DF90DFA0DC80BAF2C443084008313E9
:1009C0007A08BB007908BA007808B9007708B8003F
:1009D000B60BEB2B0800A8010030F8001F08C73940
:1009E00078049F005330F700F70BF42C0C30BC0058
:1009F0002D22A73003178D0000308F0003135822DB
:100A00001F151F19012D1E08FA0083161E088312D8
:100A1000AF007A08B0008E30F7003008F8002F08D9
:100A2000F900FA01F808031D1F2D7908F800F901F3
:100A30000830F702F808031D1F2DF701272D0310BA
:100A4000F81B262DF90DF80DF7031F2DF813C030F4
:100A5000BF003E30BE007A30BD007D30BC007A0859
:100A6000C3007908C2007808C1007708C0000E23CF
:100A70007A08AE007908AD007808AC007708AB00C2
:100A80000130BD000230BE001B222030BC002D22F0
:100A90002030BC002D22013084002E08B2002D0829
:100AA000B1002C08B0002B08AF000130B300832345
:100AB000B33003178D0000308F0003140A30031386
:100AC000AF00831603178C170C14000000000318E6
:100AD000902D83120C087F390313B00003170D0803
:100AE0000313B10003170F080313B2003008BC0052
:100AF0002D22310803178D000313320803178F00CE
:100B000083168C170C140000000083120313AF0B24
:100B10008A2D8D2D83160317902DAE2D8316031766
:100B200083120C0D0E0D7F390313B00003170D084F
:100B30000313B10003170F080313B2003008BC0001
:100B40002D22310803178D000313320803178F007D
:100B50008D0A03198F0A0313AF0B612D0230AF000A
:100B6000A7018B1BA7178B13FA30C9003720A71BCF
:100B70008B17AF0BB02D01302802FC3E0318C92D96
:100B8000043ED02DC92DC92DC92D0130AA00A901BF
:100B9000C92D2808043C031D002D8A150A1281283E
:100BA0000A148A100A158207C22DC32DC42DC52D23
:100BB000A8010830F8001F08C73978049F00533097
:100BC000F700F70BE12D0C30BC002D22B9300317D4
:100BD0008D0000308F00031358221F151F19EE2DB2
:100BE0001E08FA0083161E088312AF007A08B000B0
:100BF0008E30F7003008F8002F08F900FA01F808E5
:100C0000031D0C2E7908F800F9010830F702F808E6
:100C1000031D0C2EF701142E0310F81B132EF90DD3
:100C2000F80DF7030C2EF8131230BF00C230BE00CF
:100C30002330BD007930BC007A08C3007908C200B7
:100C40007808C1007708C0000E237A08AE00790842
:100C5000AD007808AC007708AB000130BD00023071
:100C6000BE001B222030BC002D222030BC002D22D3
:100C7000013084002E08B2002D08B1002C08B0000D
:100C80002B08AF000130B3008323C53003178D005C
:100C900000308F00031409300313AF0083160317CD
:100CA0008C170C140000000003187D2E83120C0812
:100CB0007F390313B00003170D080313B1000317A6
:100CC0000F080313B2003008BC002D2231080317AF
:100CD0008D000313320803178F0083168C170C1432
:100CE0000000000083120313AF0B772E7A2E8316B9
:100CF00003177D2E9B2E8316031783120C0D0E0DEA
:100D00007F390313B00003170D080313B100031755
:100D10000F080313B2003008BC002D22310803175E
:100D20008D000313320803178F008D0A03198F0AF1
:100D30000313AF0B4E2E0230AF00A7018B1BA7177A
:100D40008B13FA30C9003720A71B8B17AF0B9D2ED2
:100D500001302802FC3E0318B62E043EBD2EB62EEE
:100D6000B62EB62E0130AA00A901B62E2808043CE2
:100D7000031DED2D8A150A1281280A108A140A15FE
:100D80008207AF2EB02EB12EB22EA8011030F8007F
:100D90001F08C73978049F005330F700F70BCE2E99
:100DA0000C30BC002D22CB3003178D0000308F009B
:100DB000031358221F151F19DB2E1E08FA00831675
:100DC0001E088312AF007A08B0008E30F70030089A
:100DD000F8002F08F900FA01F808031DF92E790828
:100DE000F800F9010830F702F808031DF92EF701A1
:100DF000012F0310F81B002FF90DF80DF703F92E42
:100E0000F8133830BF006730BE001C30BD008130A1
:100E1000BC007A08C3007908C2007808C1007708CE
:100E2000C0000E237A08AE007908AD007808AC0047
:100E30007708AB000130BD000230BE001B2202303B
:100E400084002E08B2002D08B1002C08B0002B0839
:100E5000AF000130B3008323D63003178D0000307C
:100E60008F0003140E300313AF00831603178C1783
:100E70000C14000000000318642F83120C087F3943
:100E80000313B00003170D080313B10003170F0875
:100E90000313B2003008BC002D22310803178D0067
:100EA0000313320803178F0083168C170C140000ED
:100EB000000083120313AF0B5E2F612F83160317FD
:100EC000642F822F8316031783120C0D0E0D7F39AA
:100ED0000313B00003170D080313B10003170F0825
:100EE0000313B2003008BC002D22310803178D0017
:100EF0000313320803178F008D0A03198F0A031397
:100F0000AF0B352F0230AF00A7018B1BA7178B1338
:100F1000FA30C9003720A71B8B17AF0B842F013085
:100F20002802FC3E03189D2F043EA42F9D2F9D2FC9
:100F30009D2F0130AA00A9019D2F2808043C031D04
:100F4000DA2E8A150A1281280A148A140A158207D1
:080F5000962F972F982F992F7F
:10100000840183131F308305813083169900A63035
:101010009800903083129800A801A9010130AA001D
:1010200083161F149F141F159F1107309C008A11EF
:101030008312D5298A15A7018B1BA7178B13643040
:10104000C9008A1137208A15A71B8B170C30BC00EA
:101050008A112D228A15DE3003178D0000308F0093
:101060008A11031358228A150130BD000230BE00D8
:101070008A111B228A15E73003178D0000308F007C
:101080008A11031358228A150430AB00A7018B1B69
:10109000A7178B13FA30C9008A1137208A15A71BAE
:1010A0008B17AB0B462883161F149F101F119F151B
:1010B0001F1383121F179F1783169F1783121F1466
:1010C0008316860183128601F03083168600831210
:1010D0008B15C0308B042908FC3E03188128043E80
:1010E00083288A119E2A8A1581288A11EB2C8A1559
:1010F00081288A11D82D8A1581288A11C52E8A1532
:1011000081286B2863000A108A100A11820771284F
:06111000752879287D28F6
:02400E00723FFF
:00000001FF
;PIC16F877A
;CRC=97D5  CREATED="06-may.-20 23:28"
